:100000000C94B6000C9414010C94D9000C94D700F5
:100010000C94D7000C94D7000C94D7000C94D70004
:100020000C94D7000C94D7000C94D7000C94D700F4
:100030000C94D7000C94D7000C94D7000C94D700E4
:100040000C94D7000C94D7000C94D7000C94D700D4
:100050000C94D7000C94D7000C94D7000C94D700C4
:100060000C94D7000C94D7000C94D7000C94D700B4
:100070000C94D7000C94D7000C94D7000C94D700A4
:100080000C94D7000C94D7000C94D7000C94D70094
:100090000C942F020C94D7000C94DC010C94D70024
:1000A0000C94D7000C94D7000C94D7000C94D70074
:1000B0000C94D7000C94D7000C94D7000C94D70064
:1000C0000C94D7000C94D7000C94D7000C94D70054
:1000D0000C94D7000C94D7000C94D7000C94D70044
:1000E0000C94D7000C94D7000C94D7000C94D70034
:1000F0000C94D7000C94D7000C94D7000C94D70024
:100100000C94D7000C94D7000C94D7000C94D70013
:100110000C94D7000C94D7000C94D7000C94D70003
:100120000C94D7000C94D7000C94D7000C94D700F3
:100130000C94D70097048D04830479046F0465043C
:100140005B0451040C948D040C9497040C946F047C
:100150000C9465040C945B040C9479040C94510485
:100160000C9468030C94B7030C94830411241FBEF1
:10017000CFEFD1E8DEBFCDBF00E00CBF12E0A0E0C2
:10018000B2E0E2E5FFE000E00BBF02C007900D9295
:10019000AE32B107D9F720E1AEE2B2E001C01D9264
:1001A000AC36B207E1F70E9444010C94A7070C9407
:1001B00000001F920F920FB60F9211240BB60F92F0
:1001C0002F933F934F935F936F937F938F939F935F
:1001D000AF93BF93EF93FF9380912F0290913002E2
:1001E0009C012F5F3F4F3093300220932F0223E07A
:1001F000880F991F2A95E1F764E086549D4F0E946D
:100200001A04FF91EF91BF91AF919F918F917F91D0
:100210006F915F914F913F912F910F900BBE0F9077
:100220000FBE0F901F9018951F920F920FB60F924E
:1002300011242F938F939F9380912F0290913002DE
:100240008D32914070F080912E0281110AC0809110
:100250000002811106C0E99882E08CBB81E08093A6
:100260002E0280912E02811107C08091000281111F
:1002700003C0E99A82E08CBB9F918F912F910F90E0
:100280000FBE0F901F901895CF93DF93CDB7DEB7B9
:1002900028970FB6F894DEBF0FBECDBF04E610E07E
:1002A00022E030E144E650E066E572E080E190E073
:1002B0000E9485020E94D70378948AE00E94050478
:1002C00081E10E94050488E0E0E1F2E0DE011196A0
:1002D00001900D928A95E1F748E0BE016F5F7F4F74
:1002E00085E00E94E10351988091690088608093C5
:1002F00069008091690083608093690088E00E94B2
:10030000050480E10E940504E89A38E1C32E32E03A
:10031000D32EBB24B39480912E028823E1F10AEB03
:1003200012E0E12CF12C80912F0290913002E8161E
:10033000F90640F5F80187818F9386818F93858137
:100340008F9384818F9383818F9382818F93818117
:100350008F9380818F93FF92EF92DF92CF920E94D2
:10036000C7048FE99FE00197F1F700C000009FEFFD
:10037000E91AF90A085F1F4F0FB6F894DEBF0FBEE7
:10038000CDBFD1CF8CE292E00E94D90410922E0210
:10039000B0920002C0CF80910002882309F4BBCF45
:1003A0000E94C603833709F0B6CF10920002109264
:1003B000300210922F02AFCF78941F920F920FB697
:1003C0000F9211240BB60F922F933F935F936F936D
:1003D0007F938F939F93AF93BF93EF93FF938091FE
:1003E000C80080648093C80080913D0290913E02D5
:1003F00020913B0230913C0282179307E1F021E00B
:1004000020933202E0914102F0914202E80FF91F7D
:1004100080818093CE0080913D0290913E020196B2
:1004200060913F02709140020E94A40490933E02AA
:1004300080933D0202C010923202FF91EF91BF9172
:10044000AF919F918F917F916F915F913F912F918C
:100450000F900BBE0F900FBE0F901F9018951F921C
:100460000F920FB60F9211240BB60F922F933F935A
:100470004F935F936F937F938F939F93AF93BF93AC
:10048000EF93FF93809135029091360220913302D1
:1004900030913402E0913702F0913802009711F068
:1004A000AC0101C0AF01415051092417350741F497
:1004B0000196BF010E94A4049093360280933502F6
:1004C0008091CE00A0913902B0913A02A20FB31FE1
:1004D0008C93C9010196BF010E94A4049093340239
:1004E00080933302FF91EF91BF91AF919F918F91D4
:1004F0007F916F915F914F913F912F910F900BBE24
:100500000F900FBE0F901F9018950F931F93699A2D
:10051000689870989093CD008093CC00E8ECF0E060
:10052000808182608083E9ECF0E08081886D808347
:10053000EAECF0E0808186608083709342026093F1
:1005400041025093400240933F0230933A0220937D
:100550003902109338020093370281E092E09093C1
:1005600069108093681090936710809366101F91B4
:100570000F9108958F929F92AF92BF92CF92DF9288
:10058000EF92FF920F931F93CF93DF936C018091B3
:100590003B0290913C0220913D0230913E02821735
:1005A000930710F4E90106C0C0913F02D0914002C8
:1005B000C20FD31F2197C81BD90B6C177D0708F4F6
:1005C000EB01209709F465C0F89400913B0210916B
:1005D0003C0280913D0290913E02E0904102F090F9
:1005E000420208171907D8F080903F02909040020D
:1005F0005401A01AB10ACA15DB0588F0A501B6019D
:10060000C701800F911F0E94BE04A8014819590913
:100610004C0F5D1FB6016A0D7B1DC70105C0AE0101
:10062000B601C701800F911F0E94BE04CE01800F4A
:10063000911F60913F02709140020E94A404909328
:100640003C0280933B028091320281111FC0E091F5
:100650004102F091420280913D0290913E02E80FEA
:10066000F91F80818093CE0080913D0290913E02DF
:10067000019660913F02709140020E94A404909301
:100680003E0280933D0281E0809332027894CE0155
:1006900002C080E090E0DF91CF911F910F91FF9019
:1006A000EF90DF90CF90BF90AF909F908F90089584
:1006B000CF93DF931F92CDB7DEB7898361E070E0FF
:1006C000CE0101960E94BA020F90DF91CF9108955A
:1006D000CF93C82F8A3019F48DE00E9458038C2FD5
:1006E0000E94580380E090E0CF910895AF92BF92AE
:1006F000CF92DF92EF92FF920F931F93CF93DF93EE
:100700008B01E0903302F0903402C0903902D09017
:100710003A02A0903702B090380220913502309111
:100720003602EC01E0E0F0E0E017F10781F02E1571
:100730003F0569F0D601A20FB31F8C918993C901BF
:100740000196B5010E94A40431969C01EDCF30932F
:10075000360220933502CF01DF91CF911F910F9187
:10076000FF90EF90DF90CF90BF90AF90089561E041
:1007700070E081E392E00E947603892B21F0809162
:10078000310290E008958EEF9FEF0895CF93DF93AD
:100790001F92CDB7DEB7198261E070E0CE010196FD
:1007A0000E94760389810F90DF91CF910895289A56
:1007B00084B1876084B984E58CBD8DB581608DBDC1
:1007C00008959B01240F311D289880648EBD4150EF
:1007D0000DB407FEFDCF84E08A95F1F74EBDFB0115
:1007E00092E00DB407FEFDCF892F8A95F1F7819134
:1007F0008EBDE217F307A8F30DB407FEFDCF88E026
:1008000090E00197F1F7289A0895803121F491E062
:1008100090930F0204C0813111F410920F022898B6
:100820008EBD0DB407FEFDCF88E090E00197F1F793
:10083000289A0895CF93DF93EC01862F90E0880FDC
:10084000991F8A5B9D4F289820910F02211108C0A3
:1008500022E12EBD0DB407FEFDCF23E02A95F1F76E
:10086000A3E4B2E031E01EBC0DB407FEFDCF2EB50F
:100870002D93232F2A95F1F7A817B907A0F388E045
:1008800090E00197F1F7289A462F50E04150510926
:100890004830510508F055C046565F4FFA010C9498
:1008A000B8048091540290E0982F88272091550237
:1008B000822B9F878E878091520290E0982F882705
:1008C00020915302822B9D878C878091500290E06B
:1008D000982F882720915102822B9B878A878091AD
:1008E0004E0290E0982F882720914F02822B998703
:1008F000888780914C0290E0982F882720914D02A4
:10090000822B9F838E8380914A0290E0982F8827C4
:1009100020914B02822B9D838C838091480290E032
:10092000982F882720914902822B9B838A8380916C
:10093000460290E0982F882720914702822B9983C6
:100940008883DF91CF910895AA1BBB1B51E107C09B
:10095000AA1FBB1FA617B70710F0A61BB70B881F4F
:10096000991F5A95A9F780959095BC01CD010895DE
:10097000EE0FFF1F0590F491E02D1994FB01DC01AF
:1009800002C001900D9241505040D8F70895CF9386
:10099000DF93CDB7DEB7FE01369661917191AF015D
:1009A00080916810909169100E940605DF91CF91A7
:1009B00008950F931F93CF93DF93E0916810F09108
:1009C0006910238121FF1BC0EC0100E010E0899138
:1009D0006091681070916910DB011896ED91FC919F
:1009E0001997882331F01995892B89F30FEF1FEFA1
:1009F000EECF8AE01995892B11F4C80102C08FEF60
:100A00009FEFDF91CF911F910F9108952F923F9209
:100A10004F925F926F927F928F929F92AF92BF920E
:100A2000CF92DF92EF92FF920F931F93CF93DF93BA
:100A3000CDB7DEB72C970FB6F894DEBF0FBECDBF93
:100A40007C016B018A01FC0117821682838181FF80
:100A5000BDC1CE0101964C01F7019381F60193FDD2
:100A6000859193FF81916F01882309F4ABC1853291
:100A700039F493FD859193FF81916F01853229F4BB
:100A8000B70190E00E941707E7CF512C312C20E0EE
:100A90002032A0F48B3269F030F4803259F0833286
:100AA00069F420612CC08D3239F0803339F4216033
:100AB00026C02260246023C0286021C027FD27C0F3
:100AC00030ED380F3A3078F426FF06C0FAE05F9E2A
:100AD000300D1124532E13C08AE0389E300D11249E
:100AE000332E20620CC08E3221F426FD6BC12064AF
:100AF00006C08C3611F4206802C0883641F4F60135
:100B000093FD859193FF81916F018111C1CF982F42
:100B10009F7D9554933028F40C5F1F4FFFE3F983BA
:100B20000DC0833631F0833771F0833509F05BC037
:100B300022C0F801808189830E5F1F4F44244394B3
:100B4000512C540115C03801F2E06F0E711CF801F0
:100B5000A080B18026FF03C0652D70E002C06FEF5A
:100B60007FEFC5012C870E940C072C0183012C8587
:100B70002F77222E17C03801F2E06F0E711CF8019A
:100B8000A080B18026FF03C0652D70E002C06FEF2A
:100B90007FEFC5012C870E9401072C012C8520685E
:100BA000222E830123FC1BC0832D90E0481659069A
:100BB000B0F4B70180E290E00E9417073A94F4CFB6
:100BC000F50127FC859127FE81915F01B70190E037
:100BD0000E94170731103A94F1E04F1A510841145E
:100BE000510471F7E5C0843611F0893639F5F80102
:100BF00027FF07C060817181828193810C5F1F4F45
:100C000008C060817181882777FD8095982F0E5FDD
:100C10001F4F2F76B22E97FF09C090958095709543
:100C200061957F4F8F4F9F4F2068B22E2AE030E0B2
:100C3000A4010E944907A82EA81844C0853729F4AA
:100C40002F7EB22E2AE030E025C0F22FF97FBF2E92
:100C50008F36C1F018F4883579F0B4C0803719F0B8
:100C6000883721F0AFC02F2F2061B22EB4FE0DC007
:100C70008B2D8460B82E09C024FF0AC09F2F966078
:100C8000B92E06C028E030E005C020E130E002C007
:100C900020E132E0F801B7FE07C0608171818281F6
:100CA00093810C5F1F4F06C06081718180E090E0EE
:100CB0000E5F1F4FA4010E944907A82EA818FB2D04
:100CC000FF77BF2EB6FE0BC02B2D2E7FA51450F440
:100CD000B4FE0AC0B2FC08C02B2D2E7E05C07A2CB3
:100CE0002B2D03C07A2C01C0752C24FF0DC0FE01F2
:100CF000EA0DF11D8081803311F4297E09C022FFA5
:100D000006C07394739404C0822F867809F073949C
:100D100023FD13C020FF06C05A2C731418F4530C83
:100D20005718732C731468F4B70180E290E02C8795
:100D30000E94170773942C85F5CF731410F437189D
:100D400001C0312C24FF12C0B70180E390E02C8752
:100D50000E9417072C8522FF17C021FF03C088E5DA
:100D600090E002C088E790E0B7010CC0822F86783F
:100D700059F021FD02C080E201C08BE227FD8DE227
:100D8000B70190E00E941707A51438F4B70180E37B
:100D900090E00E9417075A94F7CFAA94F401EA0D45
:100DA000F11D8081B70190E00E941707A110F5CFD7
:100DB000332009F451CEB70180E290E00E9417077A
:100DC0003A94F6CFF7018681978102C08FEF9FEFAB
:100DD0002C960FB6F894DEBF0FBECDBFDF91CF913A
:100DE0001F910F91FF90EF90DF90CF90BF90AF9049
:100DF0009F908F907F906F905F904F903F902F903B
:100E00000895FC010590615070400110D8F780955D
:100E100090958E0F9F1F0895FC01615070400190C6
:100E20000110D8F7809590958E0F9F1F08950F930E
:100E30001F93CF93DF93182F092FEB018B8181FD37
:100E400003C08FEF9FEF20C082FF10C04E815F81F3
:100E50002C813D81421753077CF4E881F9819F0181
:100E60002F5F3F4F39832883108306C0E885F985BB
:100E7000812F1995892B29F72E813F812F5F3F4FB5
:100E80003F832E83812F902FDF91CF911F910F9160
:100E90000895FA01AA27283051F1203181F1E89410
:100EA0006F936E7F6E5F7F4F8F4F9F4FAF4FB1E05D
:100EB0003ED0B4E03CD0670F781F891F9A1FA11D58
:100EC000680F791F8A1F911DA11D6A0F711D811D59
:100ED000911DA11D20D009F468943F912AE0269F1E
:100EE00011243019305D3193DEF6CF010895462F7D
:100EF0004770405D4193B3E00FD0C9F7F6CF462F5E
:100F00004F70405D4A3318F0495D31FD40524193C6
:100F100002D0A9F7EACFB4E0A69597958795779583
:100F20006795BA95C9F700976105710508959B010A
:100F3000AC010A2E06945795479537952795BA9593
:100F4000C9F7620F731F841F951FA01D0895F894A1
:020F5000FFCFD1
:100F52000100000003000000006803B70300000165
:100F6200101010109090909025752C2025642C2044
:0E0F720025642C2025642C2025640A006400D0
:00000001FF
