:100000000C949E000C94FE000C94BF000C94BF0056
:100010000C94BF000C94BF000C94BF000C94BF0064
:100020000C94BF000C94C1000C94BF000C94BF0052
:100030000C94BF000C94BF000C94BF000C94BF0044
:100040000C94BF000C94BF000C94BF000C94BF0034
:100050000C94BF000C94BF000C94BF000C94BF0024
:100060000C94BF000C941A020C94BF000C94CB01AA
:100070000C94BF000C94BF000C94BF000C94BF0004
:100080000C94BF000C94BF000C94BF000C94BF00F4
:100090000C94BF000C94BF000C94BF000C94BF00E4
:1000A0000C94BF000C94BF000C94BF000C94BF00D4
:1000B0000C94BF000C94BF000C94BF000C94BF00C4
:1000C0000C94BF000C94BF000C94BF000C94BF00B4
:1000D0000C94BF000C94BF000C94BF000C94BF00A4
:1000E0000C94BF000C94BF000C94BF000C94BF0094
:1000F0000C94BF000C94BF000C94BF000C94BF0084
:100100000C94BF000C94BF000C94BF000C94BF0073
:100110000C94BF000C94BF000C94BF000C94BF0063
:100120000C94BF000C94BF000C94BF000C94BF0053
:100130000C94BF000C94A3030C94530311241FBE12
:10014000CFEFD1E8DEBFCDBF00E00CBF12E0A0E0F2
:10015000B2E0E0E1FFE000E00BBF02C007900D92CB
:10016000AE32B107D9F720E1AEE2B2E001C01D9294
:10017000AC36B207E1F70E9435010C9486070C9467
:1001800000001F920F920FB60F9211240BB60F9220
:100190002F933F934F935F936F937F938F939F938F
:1001A000AF93BF93EF93FF9380912F029091300212
:1001B0009C012F5F3F4F3093300220932F0223E0AA
:1001C000880F991F2A95E1F764E086549D4F0E949D
:1001D000080481E08BBBFF91EF91BF91AF919F919C
:1001E0008F917F916F915F914F913F912F910F90E0
:1001F0000BBE0F900FBE0F901F9018951F920F927D
:100200000FB60F9211242F938F939F9380912F02FB
:10021000909130028D32914088F080912E028111B0
:100220000DC080910002811109C0809168008E7F0D
:100230008093680081E08BBB80932E0280912E0218
:1002400081110BC080910002811107C0809168006C
:1002500081608093680081E08BBB9F918F912F918B
:100260000F900FBE0F901F901895CF93DF93CDB7CF
:10027000DEB728970FB6F894DEBF0FBECDBF04E6F9
:1002800010E022E030E144E650E066E572E080E113
:1002900090E00E9475020E94C40378948AE00E9454
:1002A000F30381E10E94F30388E0E0E1F2E0DE0184
:1002B000119601900D928A95E1F748E0BE016F5FBB
:1002C0007F4F85E00E94CE03249880E180936B00ED
:1002D0008091690083608093690088E00E94F30345
:1002E00080E10E94F303E89A38E1C32E32E0D32E76
:1002F000BB24B39480912E028823E1F10AEB12E033
:10030000E12CF12C27C0F80187818F9386818F9390
:1003100085818F9384818F9383818F9382818F9343
:1003200081818F9380818F93FF92EF92DF92CF92A2
:100330000E94A0048FE99FE00197F1F700C0000040
:100340009FEFE91AF90A085F1F4F0FB6F894DEBF56
:100350000FBECDBF80912F0290913002E816F906B2
:1003600090F28CE292E00E94B20410922E02B092BF
:100370000002C0CF80910002882309F4BBCF0E9405
:10038000B303833709F0B6CF109200021092300207
:1003900010922F02AFCF78941F920F920FB60F9248
:1003A00011240BB60F922F933F935F936F937F931C
:1003B0008F939F93AF93BF93EF93FF938091C00070
:1003C00080648093C000809131029091320220912C
:1003D00033023091340282179307C1F021E0209359
:1003E0003502E0913602F0913702E80FF91F2081C3
:1003F0002093C600019660913802709139020E94E4
:100400008304909332028093310202C0109235022D
:10041000FF91EF91BF91AF919F918F917F916F91DC
:100420005F913F912F910F900BBE0F900FBE0F90D9
:100430001F9018951F920F920FB60F9211240BB6B2
:100440000F922F933F934F935F936F937F938F936D
:100450009F93AF93BF93EF93FF9380913A02909154
:100460003B0220913C0230913D0260913E0270912E
:100470003F02009711F0AC0101C0AB01415051099E
:100480002417350739F401960E94830490933B02A8
:1004900080933A0280913C0290913D022091C600E7
:1004A000E0914002F0914102E80FF91F208301968C
:1004B00060913E0270913F020E94830490933D023E
:1004C00080933C02FF91EF91BF91AF919F918F91EB
:1004D0007F916F915F914F913F912F910F900BBE44
:1004E0000F900FBE0F901F9018950F931F93699A4E
:1004F000689870989093C5008093C400E0ECF0E099
:10050000808182608083E1ECF0E08081886D80836F
:10051000E2ECF0E080818660808370933702609324
:1005200036025093390240933802309341022093AF
:10053000400210933F0200933E0281E092E09093CC
:1005400069108093681090936710809366101F91D4
:100550000F9108958F929F92AF92BF92CF92DF92A8
:10056000EF92FF920F931F93CF93DF937C018091C3
:10057000330290913402209131023091320282177D
:10058000930710F4E90106C0C0913802D0913902F6
:10059000C20FD31F2197C81BD90B6C177D0708F416
:1005A000EB01209709F45FC0F89400913302109199
:1005B00034028091310290913202C0903602D09084
:1005C000370208171907E0F080903802909039023E
:1005D0005401A01AB10ACA15DB0508F411C096012E
:1005E000200F311FA501B701C9010E949704C8015E
:1005F000881999098C0F9D1FEA0CFB1CAC0103C0E4
:10060000C00ED11EAE01B701C6010E949704CE01F3
:10061000800F911F2091380230913902B9010E9458
:1006200083049093340280933302809135028111C8
:1006300018C0E0913602F09137028091310290911A
:100640003202E80FF91F40814093C6000196B901BC
:100650000E948304909332028093310281E0809360
:100660003502789402C0C0E0D0E0CE01DF91CF9196
:100670001F910F91FF90EF90DF90CF90BF90AF90C0
:100680009F908F900895CF93DF931F92CDB7DEB7E1
:10069000898361E070E0CE0101960E94AA020F906A
:1006A000DF91CF910895CF93C82F8A3019F48DE050
:1006B0000E9443038C2F0E94430380E090E0CF917F
:1006C0000895AF92BF92CF92DF92EF92FF920F9375
:1006D0001F93CF93DF938B01E0903C02F0903D029B
:1006E000C0904002D0904102A0903E02B0903F02E4
:1006F00020913A0230913B02EC01E0E0F0E010C0C2
:100700002E153F0509F40FC0D601A20FB31F8C911F
:100710008993C9010196B5010E9483049C01319619
:10072000E017F10769F730933B0220933A02CF01BB
:10073000DF91CF911F910F91FF90EF90DF90CF90BD
:10074000BF90AF90089561E070E082E492E00E9473
:100750006103892B21F02091420230E002C02EEF8C
:100760003FEFC9010895CF93DF931F92CDB7DEB756
:10077000198261E070E0CE0101960E9461038981D7
:100780000F90DF91CF910895289A84B1876084B942
:1007900084E58CBD8DB581608DBD08959B01240FCE
:1007A000311D289880648EBD41500DB407FEFDCFE9
:1007B00084E08A95F1F74EBD92E00DB407FEFDCFBF
:1007C000892F8A95F1F7FB018191BF018EBDE21758
:1007D000F30798F30DB407FEFDCF88E090E0019792
:1007E000F1F7289A0895803121F491E090930F0257
:1007F00004C0813111F410920F0228988EBD0DB4FF
:1008000007FEFDCF88E090E00197F1F7289A089560
:10081000FC01862F90E0880F991F8A5B9D4F2898D6
:1008200020910F02211108C022E12EBD0DB407FE58
:10083000FDCF23E02A95F1F7A3E4B2E031E01EBC3E
:100840000DB407FEFDCF2EB52D93232F2A95F1F77A
:10085000A817B907A0F388E090E00197F1F7289A6C
:10086000643081F138F46230E9F1A0F5613009F0CB
:1008700049C040C06630B1F0E8F0673059F06830E8
:1008800009F040C09091540280E020915502822BE3
:10089000978786879091520280E020915302822BA5
:1008A000958784879091500280E020915102822B9D
:1008B0009387828790914E0280E020914F02822B95
:1008C0009187808790914C0280E020914D02822B8D
:1008D0009783868390914A0280E020914B02822B7D
:1008E000958384839091480280E020914902822B75
:1008F000938382839091460280E020914702822B6D
:10090000918380830895AA1BBB1B51E107C0AA1FD6
:10091000BB1FA617B70710F0A61BB70B881F991FA0
:100920005A95A9F780959095BC01CD010895FB01DA
:10093000DC0102C001900D9241505040D8F708955B
:10094000CF93DF93CDB7DEB7FE01369661917191FB
:10095000AF0180916810909169100E94E104DF91CD
:10096000CF9108950F931F93CF93DF938C01E09164
:100970006810F0916910838181FF1BC0C0E0D0E056
:1009800005C01995892B11F0CFEFDFEFF8018191A8
:100990008F016091681070916910DB011896ED91DC
:1009A000FC9119978111EDCF8AE01995892B09F4F3
:1009B00002C0CFEFDFEFCE01DF91CF911F910F91FA
:1009C00008952F923F924F925F926F927F928F92F3
:1009D0009F92AF92BF92CF92DF92EF92FF920F93CE
:1009E0001F93CF93DF93CDB7DEB72C970FB6F89454
:1009F000DEBF0FBECDBF7C016B018A01FC011782F7
:100A00001682838181FFC6C188248394912C8C0E29
:100A10009D1EF7019381F60193FD859193FF8191CE
:100A20006F01882309F4B2C1853239F493FD8591B1
:100A300093FF81916F01853229F4B70190E00E9404
:100A4000FC06E7CF512C312C20E02032A8F48B3269
:100A500061F028F4803251F0833271F40BC08D3292
:100A600039F0803349F4216028C02260246025C019
:100A7000286023C0206121C027FD27C0382F3053B4
:100A80003A3078F426FF06C0FAE05F9E300D11245C
:100A9000532E13C08AE0389E300D1124332E20626D
:100AA0000CC08E3221F426FD71C1206406C08C3644
:100AB00011F4206802C0883641F4F60193FD859157
:100AC00093FF81916F018111C0CF982F955493307E
:100AD00018F09052933028F40C5F1F4FFFE3F98316
:100AE0000DC0833631F0833771F0833509F05EC075
:100AF00023C0F801808189830E5F1F4F44244394F3
:100B0000512C540115C03801F2E06F0E711CF80130
:100B1000A080B18026FF03C0652D70E002C06FEF9A
:100B20007FEFC5012C870E94F1062C0183012C85E3
:100B30006FE7262E222218C03801F2E06F0E711CDA
:100B4000F801A080B18026FF03C0652D70E002C0CF
:100B50006FEF7FEFC5012C870E94E6062C012C85E4
:100B600050E8252E222A830123FC1CC006C0B701B1
:100B700080E290E00E94FC063A94832D90E04816B3
:100B80005906A8F30FC0F50127FC859127FE819136
:100B90005F01B70190E00E94FC0631103A94F1E049
:100BA0004F1A51084114510471F7EDC0843611F009
:100BB000893641F5F80127FF07C060817181828184
:100BC00093810C5F1F4F08C060817181882777FD7A
:100BD0008095982F0E5F1F4F4FE6B42EB22297FFDD
:100BE00009C090958095709561957F4F8F4F9F4F6D
:100BF000F0E8BF2A2AE030E0A4010E942807A82ECE
:100C0000A81843C0853731F43FEEB32EB2222AE054
:100C100030E024C099EFB92EB2228F36B9F020F41B
:100C2000883509F0B3C00DC0803721F0883709F04E
:100C3000ADC002C020E1B22AB4FE0BC084E0B82AE5
:100C400008C024FF09C0E6E0BE2A06C028E030E064
:100C500005C020E130E002C020E132E0F801B7FE3B
:100C600007C060817181828193810C5F1F4F06C034
:100C70006081718180E090E00E5F1F4FA4010E94AF
:100C80002807A82EA818FFE7BF22B6FE0BC02B2D01
:100C90002E7FA51450F4B4FE0AC0B2FC08C02B2D60
:100CA0002E7E05C07A2C2B2D03C07A2C01C0752C0A
:100CB00024FF0DC0FE01EA0DF11D8081803311F487
:100CC000297E09C022FF06C07394739404C0822F4A
:100CD000867809F0739423FD14C020FF0FC05A2CAE
:100CE000731460F4530C5718732C08C0B70180E2DA
:100CF00090E02C870E94FC0673942C857314B0F34B
:100D000004C0731410F4371801C0312C24FF12C032
:100D1000B70180E390E02C870E94FC062C8522FF1F
:100D20001EC021FF03C088E590E002C088E790E084
:100D3000B7010CC0822F867891F021FD02C080E2BD
:100D400001C08BE227FD8DE2B70190E00E94FC0616
:100D500006C0B70180E390E00E94FC065A94A514F7
:100D6000C0F3AA94F401EA0DF11DB701808190E06F
:100D70000E94FC06A110F5CF06C0B70180E290E00A
:100D80000E94FC063A943110F8CF43CEF701268139
:100D9000378102C02FEF3FEFC9012C960FB6F894B0
:100DA000DEBF0FBECDBFDF91CF911F910F91FF909E
:100DB000EF90DF90CF90BF90AF909F908F907F90FB
:100DC0006F905F904F903F902F900895FC01059099
:100DD000615070400110D8F7809590958E0F9F1F3D
:100DE0000895FC016150704001900110D8F7809582
:100DF00090958E0F9F1F08950F931F93CF93DF93AE
:100E00008C01EB018B8181FD03C00FEF1FEF1AC036
:100E100082FF0DC02E813F818C819D81281739076B
:100E200064F4E881F9810193F983E88306C0E885D9
:100E3000F985802F1995892B41F78E819F81019625
:100E40009F838E83C801DF91CF911F910F910895E9
:100E5000FA01AA27283051F1203181F1E8946F93EB
:100E60006E7F6E5F7F4F8F4F9F4FAF4FB1E03ED091
:100E7000B4E03CD0670F781F891F9A1FA11D680F2F
:100E8000791F8A1F911DA11D6A0F711D811D911D62
:100E9000A11D20D009F468943F912AE0269F1124D7
:100EA0003019305D3193DEF6CF010895462F47703B
:100EB000405D4193B3E00FD0C9F7F6CF462F4F7096
:100EC000405D4A3318F0495D31FD4052419302D0F4
:100ED000A9F7EACFB4E0A69597958795779567959A
:100EE000BA95C9F700976105710508959B01AC019A
:100EF0000A2E06945795479537952795BA95C9F7C1
:100F0000620F731F841F951FA01D0895F894FFCFD3
:100F10000100000003000000005303A303000001D0
:100F2000101010109090909025752C2025642C2086
:0E0F300025642C2025642C2025640A00640012
:00000001FF
