:100000000C94AC000C94CD000C94CD000C94CD005D
:100010000C94CD000C94CD000C94CD000C94CD002C
:100020000C94CD000C94CD000C94CD000C94CD001C
:100030000C94CD000C94CD000C94CD000C94CD000C
:100040000C94CD000C94CD000C94CD000C94CD00FC
:100050000C94CD000C94CD000C94CD000C94CD00EC
:100060000C94CD000C94CD000C94CD000C94CD00DC
:100070000C94CD000C94CD000C94CD000C94CD00CC
:100080000C94CD000C94CD000C94CD000C94CD00BC
:100090000C94DB0B0C94BF0B0C94CD000C94CD0096
:1000A0000C94CD000C94CD000C94F7000C94080136
:1000B0000C94CD000C94CD000C94CD000C94CD008C
:1000C0000C94CD000C94CD000C94CD000C94CD007C
:1000D0000C94CD000C94CD000C94CD000C94CD006C
:1000E0000C94CD000C94CD000C94CD000C94CD005C
:1000F0000C94DC010C94CD000C94CD000C94BE014A
:100100000C94CD000C94CD000C94CD000C94CD003B
:100110000C94CD000C94CD000C94CD000C94CD002B
:100120000C94CD000C94CD000C94CD000C94CD001B
:100130000C94CD000C9411080C94790C0C94810C47
:100140000C94D2020C94AB050C9440080C947C0CDB
:100150000C9499050C94D00C11241FBECFEFD1E85C
:10016000DEBFCDBF00E00CBF12E0A0E0B2E0E4E6ED
:10017000FCE100E00BBF02C007900D92A430B10774
:10018000D9F72AE0A4E0B2E001C01D92A032B20784
:10019000E1F70E940C0D0C94300E0C94000014BE7C
:1001A00088E10FB6F89480936000109260000FBE53
:1001B000E1E6F0E080E8808310827894249A2C9A1B
:1001C0000C94E2001092F90980E197E29093A90063
:1001D0008093A800E1EAF0E088E08083808182607B
:1001E0008083E2E7F0E080818260808308951F923F
:1001F0000F920FB60F9211248F938091F9098F5FA0
:100200008093F9098F910F900FBE0F901F90189552
:100210001F920F920FB60F9211248F9381E080935B
:1002200004028F910F900FBE0F901F90189593E0CE
:1002300090934201909141019F719830D9F780933A
:100240004201909141019F718913FBCF08958091E4
:100250001102882311F086E101C088E00C94170197
:10026000E9E3F1E080818160808388E00E941701EA
:100270008FEF80935601EEE6F1E0908190629083DB
:1002800090819F7E908380934F01EEE4F1E0808126
:1002900088608083808180648083ECE4F1E08081E9
:1002A0008068808381E180936D0110920902109231
:1002B000110210920B0281E0809308020895E9E098
:1002C000F2E0908190619083809311020895E9E0BB
:1002D000F2E090819160908380930A020895E9E0B2
:1002E000F2E020812260208390930D0280930C0223
:1002F0000895E9E0F2E020812460208390930F02CA
:1003000080930E02089580910802813049F481E0C3
:1003100090E020910902211105C080E090E002C028
:1003200081E090E0817008951F93CF93DF931F9237
:100330001F92CDB7DEB7182F89E169839A830E9497
:1003400017016981862F8E5F80938001E12F9A814A
:10035000F92FA1E8B1E002C081918D938E2F811B0E
:100360008617D0F382E08093420183E080930802F5
:100370000F900F90DF91CF911F9108951F920F92D0
:100380000FB60F9211248F93809141018F718931A3
:1003900069F4809142018295869587708093070267
:1003A00089E08093420184E0809308028F910F904E
:1003B0000FBE0F901F9018951F920F920FB60F92BD
:1003C00011248F9389E080934201809147018093AB
:1003D000060280917B018093050285E080930802EC
:1003E0008F910F900FBE0F901F9018951F93CF9372
:1003F000DF9300D01F921F92CDB7DEB78091080225
:10040000843009F453C0853009F464C0813009F0A8
:100410008BC010910902112309F486C088E00E9464
:10042000170110FF19C090910B02292F2F70809196
:100430005401807F822B8093540180910A02911194
:1004400009C0982F9F7180914801807E892B8093ED
:10045000480102C0809353018091090281FF08C0C6
:1004600080910C028093620180910D028093630160
:100470008091090282FF08C080910E028093600182
:1004800080910F02809361018091090283FF09C06E
:10049000909110029F7080914501807F892B8093FD
:1004A00045010E942701109209023EC08091070277
:1004B0000E946309809141018F718930D9F72FC063
:1004C000FC01E058FE4F2081FC01EE5EFD4F2083D1
:1004D0004F5F01C040E020910502842F90E030E0A2
:1004E000281739076CF782E192E09A83898380911B
:1004F000050282508B83E0910502F0E0EE5EFD4F35
:1005000080818C83809106028A558D83CE0101966D
:100510000E94E005809141018F718930D9F781E017
:10052000809308020E9427010F900F900F900F9068
:100530000F90DF91CF911F9108951092FE091092B4
:10054000FF091092FB091092FA09E0E0FAE011921B
:1005500011928AE0E032F807D1F70E9478080E94F1
:10056000BF050E949D030E94F0020C94FF0390932C
:10057000FB098093FA090C9479019093FD0980930B
:10058000FC090C946F01E82FF0E0EE0FFF1FE05024
:10059000F64F7183608308950E9411060E947F09BF
:1005A0000C940A03E0919202F091930215C022810B
:1005B00033812817390769F4DC01AD57BF4F2C91FF
:1005C0002787DC01AA57BF4F2C91208B22E0248380
:1005D00005C00190F081E02D309749F70C94D303CA
:1005E00010929302109292020895FC0114821786D1
:1005F000138212828091920290919302009719F4D3
:100600001182108202C091838083F0939302E09361
:10061000920208950F931F93CF93DF93E09192027C
:10062000F0919302EF0181C08C81882321F0823008
:1006300009F078C05BC00E94A4038C01009721F4EC
:1006400082E08C838F8774C09B838A8381E08C8354
:10065000F801E957FF4F82ED92E091838083F80122
:10066000EA57FF4F898582FB882780F98083998527
:10067000F801838590FB80F98387998593FB9927FF
:1006800090F990FB82F983878091FE098F5F8093B8
:10069000FE0984878091FA099091FB0996878587E6
:1006A0008D819E81908B878798859F708189807FBF
:1006B000892B818B9F819295907F8F70892B818B65
:1006C000EF57FF4F4C856A857B8550E08081918193
:1006D0000E94F80DF80181819C85890F8183C801F2
:1006E000DF91CF911F910F910C94A508EC17FD0796
:1006F00041F48881998190939302809392020AC079
:10070000FC01808191818C179D07D1F788819981A7
:1007100091838083ED85FE85CE01DF91CF911F917E
:100720000F9119940990D881C02D209709F07CCFA2
:10073000DF91CF911F910F91089510929402109222
:100740001D031092A603089580919402882359F006
:1007500080911D03882351F08091A60381111FC051
:1007600082E090E005C080E090E002C081E090E08F
:1007700049E8489F9001499F300D1124F901EC563A
:10078000FD4FDF011D924A95E9F780E18183DF018A
:10079000AF57BF4F2A553D4F2D933C9302C0E0E029
:1007A000F0E0CF010895FC0110820895009759F000
:1007B000FC01E757FF4F09C0E757FF4F84E0EF32D6
:1007C000F80719F406C0E4E9F2E080818823A1F378
:1007D00002C0E0E0F0E0CF010895FC01ED57FF4FCB
:1007E0001082EEEFF9E020812F5F2083FC01248747
:1007F0002091FA093091FB09368725870895E4E3B3
:10080000F4E080E090E02FEF3FEF57E0DF01149736
:100810002D933C93589FD001599FB00D1124A15D99
:10082000BB4F4C914E7F4C93108201963796843685
:10083000910561F70895CF93DF93A0E3B4E020E042
:1008400030E0C7E070E0ED91FC911197E817F907EF
:1008500079F4C29FF001C39FF00D1124E15DFB4FBD
:10086000D081D1FB442740F950E04617570741F0AB
:100870002F5F3F4F17962436310529F7E0E0F0E06F
:10088000CF01DF91CF910895E0E0F0E0AFE2B4E076
:100890008C9180FD0CC015968C911597882369F07A
:1008A000309721F09581891708F001C0FD01179656
:1008B00086E0AB3EB80761F701C0FD0180818D7015
:1008C0008063808380E88583CF010895FC01808167
:1008D00080FD05C08FEF9FEF92838183158208957D
:1008E0000E941B04009721F0FC012381348102C087
:1008F0002FEF3FEFC90108950E941B04009711F0EC
:100900000C94660408950F931F93CF93DF93EC012B
:1009100009851A8517FF06C08D859E85081719075A
:1009200009F041C08D819E810196E9F160E08D85DD
:100930009E850E941B04FC01009731F18F819885F0
:10094000019659F481E090E04091FA095091FB0939
:100950002F8538894217530711F080E090E02381FA
:1009600034812017310739F0DE01AD57BF4F3C917C
:100970002681231710F080FF12C014830383808127
:100980008F70806380830BC00E944404FC018D85BE
:100990009E859283818389859A8594838383CD57AD
:1009A000DF4F88818683DF91CF911F910F9108954A
:1009B000CF93DF93EC018F8598898F3F2FEF9207BC
:1009C000B9F16B8563FB662760F90E941B04FC018B
:1009D000009771F1908190FD2BC0CD57DF4F88813A
:1009E000811114C09F709063908385818F5F858390
:1009F0008F3FF1F4E4E3F4E0808186958F5F80839C
:100A0000379686E0E03FF807B9F712C0892F829544
:100A10008F7081508F70282F2295207F9F70922B8E
:100A20009083811105C0CF01DF91CF910C946604B2
:100A3000DF91CF910895CF93DF93EC018F85988953
:100A40008F3F2FEF920709F408C06B8562FD05C048
:100A500063FB662760F90E94700498878F83DF919B
:100A6000CF910895BF92CF92DF92EF92FF920F93B2
:100A70001F93CF93DF938C01FC01B384B3FABB24A3
:100A8000B0F8C784D0886B2DC6010E94700401960F
:100A9000B1F0F801E957FF4F11821082F801EA57CF
:100AA000FF4F82E08083C801DF91CF911F910F91AA
:100AB000FF90EF90DF90CF90BF900C94A508F801C5
:100AC000E584F6840E94A403EC010097E1F00E9403
:100AD000ED0389818A5F8983FE01E957FF4F118207
:100AE0001082F88AEF86FE01EF57FF4F0190F081E8
:100AF000E02D81E08083F282E182D482C382B582DC
:100B0000CE010E94A508C801DF91CF911F910F91DE
:100B1000FF90EF90DF90CF90BF900C94D303DC0157
:100B20001796ED91FC9118976581838194810C94BF
:100B30007C04EFEEF6E020E03081332319F03150F1
:100B4000308321E0359637E0E132F307A9F7211130
:100B50000C94B50A0895DC011796ED91FC91189755
:100B60002081222319F0213041F403C00E9445095D
:100B700002C00E948F0581E0089580E00895EFEEA5
:100B8000F6E01082359687E0E132F807D1F784E687
:100B900090E0A0E0B0E08093230790932407A09317
:100BA0002507B09326071092270789E995E09093CF
:100BB0002907809328076BEA75E080E00C94C30254
:100BC000CF93DF93EC01E881F9818181883831F599
:100BD0008081813611F0813409F58A818031F0F00D
:100BE0000E94A4030097D1F020E2FC0120832A8117
:100BF00021832B81ED57FF4F20832C81FC01EC5783
:100C0000FF4F20839C012E5F3F4F4A81688179818D
:100C100050E0C901DF91CF910C94F80DDF91CF9195
:100C200008956F927F928F929F92AF92BF92CF92D0
:100C3000DF92EF92FF920F931F93CF93DF93CDB785
:100C4000DEB72C970FB6F894DEBF0FBECDBF00E025
:100C500010E094E2D92EEE24E394F12C35E0832EBB
:100C600042E2942E53E2B52EAA24A3946FE1C62E3D
:100C7000B2C1D8018C91823209F4D7C020F48032FD
:100C800009F0A9C107C0833209F49EC1843209F07A
:100C9000A2C19EC1F801D08287859089019629F46E
:100CA000D8011B968C9180FD96C12091FA09309154
:100CB000FB09F801858596852817390709F48BC14A
:100CC00083858A7009F087C1C8010E94830480E08F
:100CD00090E060E070E0889EF001899EF00D1124A4
:100CE000E551F94F2481222309F44BC0D8011D9608
:100CF0004D915C911E97208131814217530709F075
:100D000041C01C969C911C974281491B83814830AD
:100D100060F5282F30E0042E02C0359527950A94FF
:100D2000E2F720FF19C02091FA093091FB091796CC
:100D30008D919C9118972817390709F04CC11B9683
:100D40006C911B9763FB662760F91F968D919C91B0
:100D500050970E947C043FC19701042E01C0220FCE
:100D60000A94EAF7822B83833EC1928390E04195F7
:100D700002C0880F991F4A95E2F781608383C4827D
:100D800032C1BF0101968A30910509F0A4CF6115E7
:100D9000710509F420C1F80185859685DB0111965E
:100DA0009C938E93848512968C9312971396AC9293
:100DB00013971496CC928DE197E00E94B50A13C167
:100DC0002091FA093091FB09F8018785908928174D
:100DD000390761F085819681019641F0D8011B9613
:100DE0008C9182FD03C0C8010E94F9088091FA0924
:100DF0009091FB09F801278530898217930719F034
:100E00002F3F3F4F19F4D8019C92E5C0F80127818C
:100E100030858217930709F0DEC08581968101969F
:100E200009F4D9C0D801BC92D6C010922A07F801A3
:100E3000218922952F70E22FF0E0EE0FFF1FE05086
:100E4000F64F0190F081E02D309709F463C0D8018E
:100E50001D968D919C911E979A8389831F964D9123
:100E60005C9150975C834B8351963C9151973F70B6
:100E70003D832E83AF57BF4F6D917C9179876887F3
:100E800098012E5F3F4F261B370BD80111963C91DE
:100E90001197320F3A87AD57BF4F2C912B87D8014E
:100EA000AC57BF4F2C912C87D8011B962C91622FE9
:100EB000637022FF02C030E201C030E0632B23FFE9
:100EC00002C030E401C030E0362B4F3F5F4F11F4D9
:100ED00024E001C020E0432F422BD80119962D9128
:100EE0003C911A978217930711F498E001C090E0A3
:100EF000242F292BD80115968D919C911697019638
:100F000011F480E101C080E0822B8F83CE01019635
:100F1000199501C080E0F801278130852F3F3F4FB0
:100F200071F421E030E06091FA097091FB09D80179
:100F30001F964D915C9150976417750711F020E052
:100F400030E02170F801938590FF02C0811102C04A
:100F50002223B9F10E94A4033C01009791F10E9461
:100F6000ED03D30111968C9111978D5F11968C939F
:100F70001197F301E957FF4F11821082F801938511
:100F8000969591701B968C911B9790FB81F91B96FF
:100F90008C931B978585968550969C938E931F976F
:100FA000F301EF57FF4F0190F081E02D1082809107
:100FB0002A078283D8011C968C918183C3010E94E9
:100FC000A508F801D08207C0C8010E94320503C0FD
:100FD000C8010E94D303C8010E94D6038C01009768
:100FE00009F047CE09C0D80117968D919C911897AA
:100FF000019609F0FBCEE4CE2C960FB6F894DEBF36
:101000000FBECDBFDF91CF911F910F91FF90EF9059
:10101000DF90CF90BF90AF909F908F907F906F9018
:1010200008950F931F93CF93DF93EC0110E0E0E05E
:10103000F0E003E111C08081813171F4DF01AC5730
:10104000BF4F2D913C911197215031092D933C9325
:10105000232B09F4008311E0CF010E94D603FC0189
:10106000009749F7112339F0CE01DF91CF911F91FD
:101070000F910C94B50ADF91CF911F910F910895B4
:10108000FF920F931F93CF93DF93EC0110E0E0E00A
:10109000F0E007E180E1F82E15C08081863191F4FF
:1010A000DF01AC57BF4F2D913C9111972150310971
:1010B0002D933C93232B29F40083DF01AD57BF4FC1
:1010C000FC9211E0CF010E94D603FC01009729F7A2
:1010D000112341F0CE01DF91CF911F910F91FF902D
:1010E0000C94B50ADF91CF911F910F91FF90089555
:1010F00010922C0710922B0782E390E0A0E0B0E062
:101100008093330790933407A0933507B093360745
:101110001092370780E498E090933907809338075E
:101120008AE090E0A0E0B0E0809340079093410710
:10113000A0934207B09343071092440781E198E0DF
:10114000909346078093450708950F931F93CF937D
:10115000DF93EC01FC01EA57FF4F208182E1888395
:10116000FE01ED57FF4F1082322F317020FF03C078
:101170008FEF9FEF04C08091FC099091FD099E8341
:101180008D8322FD06C0311104C0CE010E941B05D3
:1011900004C08F85988998878F838091FA099091F0
:1011A000FB099A8789878091FF098F5F8093FF09E8
:1011B0008C838F8198858E010C571F4F019669F49F
:1011C00081E498E89B838A830E94E90D87709927C0
:1011D0000196F8019183808307C081E698E89B839C
:1011E0008A83F80111821082DF91CF911F910F91B4
:1011F00008950F931F93CF93DF938C010E94A40354
:10120000EC010097E9F182E18883F801818189830B
:10121000FE01ED57FF4F10820E94E90DFE01EC57D1
:10122000FF4F87709927019691838083FE01E957CC
:10123000FF4F118210829E012E5F3F4FF8014181C6
:10124000C801029650E0BC01C9010E94F80D81E47A
:1012500098E89B838A838FEF9FEF98878F83F801AD
:10126000858196819E838D838091FA099091FB09F7
:101270009A8789878091FF098F5F8093FF098C830C
:10128000DF91CF911F910F910895CF93DF93FC01D0
:10129000C781D08580E090E00FC0FC01208126311D
:1012A00059F434852981321307C027E120832A812C
:1012B000EA57FF4F208304C00E94D603009769F7C6
:1012C000DF91CF910895E0912B07F0912C078330A7
:1012D00030F0833031F0853031F481E205C080E0B8
:1012E00003C080E201C081E0DF01AD57BF4F8C93A6
:1012F00085E1808310922C0710922B070895BF92EE
:10130000CF92DF92EF92FF920F931F93CF93DF93D1
:10131000C0E0D0E094E1E92E27E1F22E36E1D32EB1
:1013200005E110E043E1C42E51E1B52E59C088819A
:101330008331C1F020F4823109F052C006C08531FA
:1013400001F1873109F04CC03BC0FE01EC57FF4F63
:1013500080819181892B21F0B8828AE397E02BC0AC
:10136000C8823EC00E94830181113AC0D0932C07ED
:10137000C0932B07E8826981CE0102960E949401F6
:101380002FC0FE01ED57FF4F8081811117C02D85C1
:101390003E858091FA099091FB092817390771F46D
:1013A0008B8580FF0BC0D882FE01EC57FF4F118365
:1013B00000838DE297E00E94B50A12C0F88210C047
:1013C000CE010E94D804FE01E957FF4F0190F08141
:1013D000E02DCE01309719F40E94D30301C0199576
:1013E000CE010E94D603EC01009709F0A0CFDF9157
:1013F000CF911F910F91FF90EF90DF90CF90BF9012
:1014000008950E94CF000E94670A0E9430010C9448
:101410009D020E94F6010E94CC020C94C40A0F9314
:101420001F93CF93DF93FC0180914707909148076A
:10143000B681A781308521850097D1F14B2F5A2F96
:10144000632F722FDC01C0E0D0E001C0D9011296F9
:101450000D911D912D913C911597401751076207F1
:10146000730758F4041B150B260B370B12960D93BC
:101470001D932D933C9315970BC0401B510B620B92
:10148000730B2D913C911197ED0121153105F1F66A
:101490004283538364837583209739F088819981CF
:1014A00091838083F983E8830DC09183808306C094
:1014B00011821082B283A38334832583F09348077B
:1014C000E0934707DF91CF911F910F9108951092FC
:1014D0004807109247070895CF93DF93E09147079D
:1014E000F0914807A0E0B0E02AC0E817F90711F52D
:1014F00020813181109719F02D933C9304C03093D3
:101500004807209347070190F081E02D3097C9F0FC
:101510004281538164817581EC018A819B81AC8118
:10152000BD81480F591F6A1F7B1F42835383648309
:10153000758307C030812181DF01E32FF22F3097BF
:10154000A1F6DF91CF910895E0914707F091480708
:1015500006C0E817F90739F00190F081E02D3097C7
:10156000C1F780E0089581E00895CF93DF93EC0107
:101570000E94A40A811105C0CE01DF91CF910C9485
:101580000F0ADF91CF910895CF92DF92EF92FF92F1
:10159000CF93DF938091F9098823D1F18FB7F89425
:1015A0002091F9091092F9098FBF30E0AAE0B0E06C
:1015B0000E948D0D6B017C0114C0C41AD50AE60A85
:1015C000F70A8881998190934807809347078A8515
:1015D000813019F4CE010E940F0AEB85FC85CE0103
:1015E0001995C0914707D0914807209789F04A8103
:1015F0005B816C817D81C416D506E606F706E8F6A8
:101600004C195D096E097F094A835B836C837D8376
:10161000DF91CF91FF90EF90DF90CF9008959B01E5
:10162000AC0184E0220F331F441F551F8A95D1F768
:1016300060E074E284EF90E00E946B0D215031096C
:1016400041095109BB27A52F942F832F8093CD00EB
:101650002093CC00E8ECF0E082E0808388E980937E
:10166000C90086E08093CA008FE597E090935E07FB
:1016700080935D07F0935A07E093590710925C0737
:1016800010925B0710925607109255071092580758
:101690001092570788E298E090935407809353077D
:1016A000F0935007E0934F071092520710925107A2
:1016B00010924C0710924B0710924E0710924D0754
:1016C00081E080934A0710924907089520915B07B3
:1016D00030915C074091590750915A0724173507FC
:1016E000F9F06091570770915807E0915D07F0910C
:1016F0005E07E60FF71F8083CB01019684179507DD
:1017000029F0909358078093570704C01092580708
:10171000109257072F5F3F4F30935C0720935B0772
:1017200008959FB7F894E0915307F09154072091E2
:101730004B0730914C07E20FF31F80812F5F3F4F23
:1017400030934C0720934B0740914B0750914C0727
:1017500020914F07309150074217530721F4109200
:101760004C0710924B07209151073091520721509E
:10177000310930935207209351079FBF08951F925C
:101780000F920FB60F9211240BB60F928F93EF9317
:10179000FF9381E080934A07E9ECF0E080818F7D40
:1017A0008083FF91EF918F910F900BBE0F900FBE32
:1017B0000F901F9018951F920F920FB60F92112441
:1017C0000BB60F922F933F934F938F939F93EF936B
:1017D000FF938091C8004091CE008C71B1F52091AB
:1017E00051073091520780914F0790915007281769
:1017F000390759F1E0915307F091540780914D0753
:1018000090914E07E80FF91F4083019690934E0781
:1018100080934D0720914D0730914E0780914F07DF
:10182000909150072817390721F410924E07109213
:101830004D0780915107909152070196909352075E
:101840008093510781E080934907FF91EF919F9129
:101850008F914F913F912F910F900BBE0F900FBE24
:101860000F901F90189580915B0790915C070097EF
:1018700089F120914A07222369F12091550730917F
:101880005607E0915D07F0915E07E20FF31F60815C
:101890002F5F3F4F309356072093550740915907CC
:1018A00050915A072417350721F4109256071092C9
:1018B0005507019790935C0780935B079FB7F89457
:1018C0006093CE008091C90080628093C90010921D
:1018D0004A079FBF3FB7F8942091490710924907E4
:1018E00080915107909152073FBF21110C94D70C62
:1018F000089510926C09089585B190E1892785B902
:1019000008951F93CF93DF93EC0110E008C0EF819F
:10191000F885E10FF11D80810E94660B1F5F8985AC
:101920001817A8F381E0DF91CF911F9108950F93CD
:101930001F93CF93DF931091F108112361F1CDE64E
:10194000D9E082EF98E0412F50E0BC01CE010E9427
:10195000F80D81E090E09093E0098093DF0901E0C9
:101960000093E1090093E20983E08093E309D093B7
:10197000E509C093E4091093E60989E79CE0909398
:10198000E8098093E7098AED99E00E94F502109238
:10199000F10800936C09DF91CF911F910F91089589
:1019A00080916C09811102C00C94970C0895FF92EC
:1019B0000F931F93CF93DF938C01C0E0D0E01CC046
:1019C0000E94910BF82E0E94660B8091F1088D36D3
:1019D00031F480916C09811102C00E94970C9091A2
:1019E000F1089D3640F4E92FF0E0EE50F74FF08219
:1019F0009F5F9093F1082196C017D10709F78FE5F3
:101A000099E00E946C0A8FE599E0DF91CF911F91D8
:101A10000F91FF900C94B50A0E94010A60E076E9EC
:101A200080E090E00E940F0B82E0782E94E0592E27
:101A300028EE822E23E0922EA12CB12C0CE71CE084
:101A400034E1C32ED12CE12CF12CC0EDDCE00E945E
:101A5000090A0E94330C8091EB098111F8CF80E0D4
:101A600090E00E94B70287E695E40E94BD0280E004
:101A70000E94670181E00E945F0161E87CE081E0F3
:101A80000E94C30273BA74BA50BA11BA8092F209B2
:101A90009092F309A092F409B092F5096624639438
:101AA0006092F6091093F8090093F7098CEE99E01B
:101AB0000E94B50AC0926509D0926609E092670952
:101AC000F092680910926909D0936B09C0936A0972
:101AD0006092EB09BCCFA1E21A2EAA1BBB1BFD0131
:101AE0000DC0AA1FBB1FEE1FFF1FA217B307E407FD
:101AF000F50720F0A21BB30BE40BF50B661F771F55
:101B0000881F991F1A9469F7609570958095909534
:101B10009B01AC01BD01CF010895A29FB001B39F0D
:101B2000C001A39F01D0B29F700D811D1124911D92
:101B300008958F929F92AF92BF92CF92DF92EF92D1
:101B4000FF92CF93DF93EC01688179818A819B8139
:101B5000611571058105910521F464E279ED8BE54C
:101B600097E02DE133EF41E050E00E94010E490182
:101B70005A019B01AC01A7EAB1E40E941D0E6B0162
:101B80007C01ACEEB4EFA50194010E942B0EC60EB1
:101B9000D71EE81EF91EF7FE06C081E0C81AD1085C
:101BA000E10880E8F80AC882D982EA82FB82E894D8
:101BB000D7F8EE24FF24C601DF91CF91FF90EF907C
:101BC000DF90CF90BF90AF909F908F9008950C942E
:101BD000990D80E092E00C94990DA0E0B0E0809324
:101BE000000290930102A0930202B09303020895B1
:101BF000FB01DC0102C001900D9241505040D8F72A
:101C00000895052E97FB16F4009407D057FD0DD0CC
:101C10000E946B0D07FC09D07EF49095809570951D
:101C200061957F4F8F4F9F4F089550954095309508
:101C300021953F4F4F4F5F4F08950E948D0DA59FF7
:101C4000900DB49F900DA49F800D911D11240895B7
:101C5000B7FF0C941D0E0E941D0E821B930B08955E
:041C6000F894FFCF26
:041C6400010000007B
:00000001FF
